:020000040000FA
:100000000A128A11E22F00308A000408840A82074B
:100010000034013400340A34003464340034E834E9
:0C002000033410342734253475340034C8
:10096600831203134B08B72C0800831203134A089B
:10097600BC2C080064008001840A040603190034B4
:100986000406BE2CF000C72C83160313981CCC2C2F
:10099600CD2CC72CCE2C70088312031399000800A7
:1009A60083160313181398161812181583120313B7
:1009B6009817181318169811813083160313990087
:1009C6000800F400F201F301FB2C72087407F10031
:1009D60071088400831300080A128A11C5240A12BA
:1009E6008A110130F2070318F30A0030F307FB2CD3
:1009F60072087407F1007108840083130008031D50
:100A0600052D062DE82C072D080078087904031912
:100A16000D2D0E2D432DFD01FD0A1D2D0130031058
:100A2600F80DF90DFF3E031D122D0130FC007C0868
:100A3600FD071D2DF91F202D212D112D232D232DD1
:100A460079087B02031D292D78087A02031C2C2DB8
:100A56002D2D342D7808FA027908031CFB03FB02BE
:100A6600342D01300310F90CF80CFF3E031D352D13
:100A76000130FD02031D402D412D232D432D432D15
:100A86007B08F9007A08F800482D0800F501F60100
:100A9600700871040319502D512D8E2DF701F70A98
:100AA600602D01300310F00DF10DFF3E031D552D95
:100AB6000130F4007408F707602DF11F632D642DD3
:100AC600542D662D662D01300310F50DF60DFF3EF3
:100AD600031D672D71087302031D732D70087202C2
:100AE600031C762D772D7F2D7008F2027108031CEA
:100AF600F303F30275147F2D01300310F10CF00C93
:100B0600FF3E031D802D0130F702031D8B2D8C2D1A
:100B1600662D8E2D8E2D7608F1007508F000932D2A
:100B2600080083160313071387171813981618124D
:100B36001815813099000A128A11D3240A128A11D3
:100B4600A42D0A128A11F6260A128A11003A0319EE
:100B5600AD2DAE2DA42D0A128A11B3240A128A11C4
:100B660083120313D9005908C9000A128A11B8243E
:100B76000A128A1183120313D9005908C8000B30D0
:100B8600D9005908CC004808DA00DB015A08CD0024
:100B96005B08CE005C300A128A1116260A128A11E8
:100BA6005C300A128A11E4240A128A110D3083126B
:100BB6000313DB00AF30DA00B530D900D90BE12DD5
:100BC600DA0BE12DDB0BE12DE82D0B30831203133D
:100BD600D9005908CC004908DA00DB015A08CD00D3
:100BE6005B08CE005C300A128A1116260A128A1198
:100BF6005C300A128A11E4240A128A110D3083121B
:100C06000313DB00AF30DA00B530D900D90B092E5B
:100C1600DA0B092EDB0B092E102EA42DA42DA42DE4
:100C26000A128A11002883120313D7004D30CF0011
:100C36004F08D300DC2E253058060319232E242E08
:100C4600302E5808CF00570884004F0883138000C1
:100C56000130CF004F08D707DC2ED2013A2EF02EF6
:100C6600DC2EC030CF004F08D204542E542E013053
:100C7600CC07FF304C0784000A128A1103200A129F
:100C86008A11D800CF00D0015008003A03194C2E23
:100C9600DC2E4F08003A0319F02E753A0319342E4C
:100CA600DC2E5308840083130008D400840A00084D
:100CB600D5000230CF004F08D307D801D80A053037
:100CC6005806031D672E682E6A2E922E922E5808FD
:100CD600CF004F07013E84000A128A1103200A1230
:100CE6008A11D0000A128A1103200A128A11D10031
:100CF60051085502031D812E500854020318842EF4
:100D0600852E872E922E922E0130CF004F08D807BF
:100D160005305806031D902E912E6A2E922E5808E5
:100D2600CF004F08D600D12E0A30F8000030F90067
:100D36005608CF004F07013E84000A128A1103208D
:100D46000A128A11F0000A128A1103200A128A1165
:100D5600F1005508F3005408F2000A128A114925D9
:100D66000A128A117108FB007008FA000A128A1129
:100D760008250A128A117808303E83120313D00020
:100D86005008D8005808CF00570884004F0883132E
:100D960080000130CF004F08D707D12EFF30CF009B
:100DA6004F08D607560A031DD92EDA2E972EDC2EAB
:100DB600DC2E0130CC07FF304C0784000A128A1162
:100DC60003200A128A11CF004F08D8005808031DC5
:100DD600ED2EEE2E1E2EF02EF02E570884008313D5
:100DE6008001F52E080083160313061183120313E0
:100DF60006118230F100DD30F000F00B002FF10B10
:100E0600002F052F8312031306153130F000F00B67
:100E16000A2F0D2F8316031306156330F000F00B0F
:100E2600122F152F83120313061D1A2F1B2F202F87
:100E36000030E12FE12F262F202F061D232F242FF0
:100E4600202F262F262F6330F000F00B282F2B2F74
:100E5600831203130619302F312F362F0030E12F5E
:100E6600E12F3C2F362F0619392F3A2F362F3C2FDC
:100E76003C2FD801D701492F5808523E84008313CE
:100E860080010130F0007008D807492F053058025C
:100E9600031C4E2F4F2F3F2F502FD801D80105305E
:100EA6005802031C572F582F5A2FA42FA42FD701AF
:100EB60008305702031C602F612F642F992F992F3A
:100EC600642F061D672F682F642F692F5330F0009B
:100ED600F00B6B2F83120313061D722F732F8E2FA9
:100EE6000130F0005703FF3A073E013E7C2F031006
:100EF600F00DFF3E031D7A2F7008F1005808523E90
:100F06008400710883138004882F06198B2F8C2F79
:100F1600882F8E2F8E2F0130F0007008D7070830EB
:100F26005702031C972F982F642F992F0130F0003A
:100F36007008D80705305802031CA22FA32F5A2F7A
:100F4600A42F52085307F000F101F10D5408700761
:100F5600F2000030031801307107F30055087207DC
:100F6600D0000030031801307307D1005608F00096
:100F7600F10151087106031DC22F500870060319AE
:100F8600C52FC62FC92F0030E12FE12F5208F000E0
:100F96007008CB005308F000F1017008CC0071080E
:100FA600CD005408F0007008CA005508F000F101A1
:100FB6007008CE007108CF000130E12F08008313BE
:100FC600203084004C300A128A11BD240A128A117C
:100FD600A0308400E0300A128A11BD240A128A1158
:100FE600831790308400E0300A128A11BD240A1259
:0A0FF6008A1183010A128A11942D5A
:02400E003A3F37
:00000001FF
